:020000040000FA
:060000000A128A110C280F
:10000800FE00030EF5000A08F6000A128A11D3282A
:100018000A128A110F2883133030FD000130FE00C8
:100028003F30FF00203084000A128A1130210A1262
:100038008A11F001F101F201F301F40183010A12BE
:100048008A1126280A128A114F210A128A110A12C5
:100058008A110F210A128A110A128A115E210A12C4
:100068008A118316031387018501861406159614D1
:10007800161501178B170B160812881286162030D2
:100088008316031789008316031386130A128A112D
:100098004F210A128A110A128A115E210A128A1144
:1000A800831603130F168F160F17831203130812E4
:1000B8008812850186130A128A110F210A128A11E1
:1000C8007B08203E840083130008831203138700F3
:1000D80008161A3083120313B100F730B000B00BC2
:1000E8007328B10B732878288312031308127A082F
:1000F800203E840083130008870088161A30831274
:100108000313B100F730B000B00B8828B10B882872
:100118008D288312031388129F18932894289528F2
:100128009F147203031D99289A28AE28F201740AB5
:1001380003199F28A028A5287408013EB00030089C
:10014800F400740A031DA928AA28AE28FF30B000BD
:100158003008F4007003031DB228B328C428F00146
:1001680074080319B828B928BE287408FF3EB000DF
:100178003008F4007408031DC228C328C428F401F9
:100188007408850074087902031CCB28CC28CE2873
:1001980086175F2886135F280A128A110C288B138A
:1001A8000B1CD728D82808290B1083120313061D07
:1001B800DE28DF28E228F301F30A8B130619E52865
:1001C800E628F2287303031DEA28EB28F228F30136
:1001D800F201F20A8B100B108B170829861CF528E0
:1001E800F628F928F101F10A8B138618FC28FD2856
:1001F80008297103031D012902290829F101F001C9
:10020800F00A8B100B108B1776088A00750E830086
:10021800FE0E7E0E0900831203131E08F7007708EE
:10022800F9001E08F7007708B20079080F39F700BF
:100238007708FB003208F70004300310F70CFF3E84
:10024800031D212977080F39F8007808FA000800FB
:100258007E088A007F0882000A128A112C210A125D
:100268008A118000840A04087D0603190034FF0AF5
:100278000319FE0A3029EE342834CD346D342B347A
:100288006734E7342C34EF346F34AF34E334C63496
:10029800E934C7348734831203139F171F131F08C9
:1002A800C33934389F001F14831603139F139F12FA
:1002B8001F120800831603138117011381120112FC
:1002C8008111F8308105033083120313810008007F
:04400E00D4E0FFFFFC
:00000001FF
