:020000040000FA
:060000000A128A110C280F
:10000800FE00030EF5000A08F6000A128A11CB2832
:100018000A128A110F2883133030FD000130FE00C8
:100028002C30FF00203084000A128A111D210A1288
:100038008A11F001F101F201F301F40183010A12BE
:100048008A1126288316031387018501061486144E
:100058001614961401178B170B1608128812861699
:10006800203083160317890083160313861383121F
:1000780003139F171F131F08C33934389F001F1419
:10008800831603139F139F121F120F168F160F1735
:1000980081170113811201128111F8308105033093
:1000A80083120313810008128812850186130A122D
:1000B8008A11FC200A128A117B08203E84008313CF
:1000C800000883120313870008161A3083120313DB
:1000D800B100F730B000B00B6F28B10B6F2874284F
:1000E8008312031308127A08203E84008313000841
:1000F800870088161A3083120313B100F730B00056
:10010800B00B8428B10B8428892883120313881222
:100118009F188F28902891289F147203031D9528F3
:100128009628AA28F201740A03199B289C28A1285A
:100138007408013EB0003008F400740A031DA528B5
:10014800A628AA28FF30B0003008F4007003031D69
:10015800AE28AF28C028F00174080319B428B528C0
:10016800BA287408FF3EB0003008F4007408031D74
:10017800BE28BF28C028F4011E087406031DC52820
:10018800C6285B2886175B280A128A110C28831256
:100198000313061DD028D128D328F301F30A061922
:1001A800D628D728E1287303031DDB28DC28E1289B
:1001B8008B13F301F201F20A8B17861CE428E52859
:1001C800E728F101F10A8618EA28EB28F5287103D7
:1001D800031DEF28F028F5288B13F101F001F00A30
:1001E8008B1776088A00750E8300FE0E7E0E0900B6
:1001F800831203131E08F7007708F9001E08F7009A
:100208007708B20079080F39F7007708FB00320841
:10021800F70004300310F70CFF3E031D0E29770882
:100228000F39F8007808FA0008007E088A007F086D
:1002380082000A128A1119210A128A118000840A7E
:1002480004087D0603190034FF0A0319FE0A1D2954
:10025800EE342834CD346D342B346734E7342C3401
:10026800EF346F34AF34E334C634E934C7348734F9
:04400E00D4E0FFFFFC
:00000001FF
