:020000040000FA
:060000000A128A11CA2F4A
:100CFE006D34CD342834EE3400347E088A007F08FB
:100D0E0082000A128A1184260A128A118000840A2D
:100D1E0004087D0603190034FF0A0319FE0A882E03
:100D2E000034013402340434083410342034403496
:100D3E00803400340034403480342034103408348D
:100D4E000434023401340034831603138501860102
:100D5E00881408158815870188130813881208103F
:100D6E000812831203138812081388138701860151
:100D7E00850108100812881CC52EC62EC82EF50136
:100D8E00F50A8818CB2ECC2EC22E7503031DD02E3D
:100D9E00D12EC22EF5017208763E8400000887001F
:100DAE008816081388130630FD001330FC00AD3092
:100DBE00FB00FB0BE02EFC0BE02EFD0BE02EE72ED6
:100DCE007208013EFB007B08F2007208763E84003A
:100DDE000008831203138700881208178813063041
:100DEE00FD001330FC00AD30FB00FB0BFC2EFC0BAA
:100DFE00FC2EFD0BFC2E032F7208013EFB007B0820
:100E0E00F2007208763E84000008831203138700F6
:100E1E008812081388170630FD001330FC00AD3021
:100E2E00FB00FB0B182FFC0B182FFD0B182F1F2F81
:100E3E007208013EFB007B08F2007208763E8400C9
:100E4E0000088312031387000630FD001330FC00E8
:100E5E00AD30FB00FB0B312FFC0B312FFD0B312F77
:100E6E00382FF2017A0883120313870088120813B1
:100E7E0088134130FC00EE30FB00FB0B442FFC0BC3
:100E8E00442F000083120313881C4E2F4F2F512F17
:100E9E00F501F50A0818542F552F5C2F7503031D05
:100EAE00592F5A2F5C2FF501C72F081D5F2F602F6A
:100EBE00622FF401F40A0819652F662F772F740339
:100ECE00031D6A2F6B2F772FF4017108013EFB0073
:100EDE007B08F10071082A3E840083130008850008
:100EEE0009307106031D7C2F7D2F922F0814780870
:100EFE008700F30186018501F0011530FD004B30AE
:100F0E00FC00BE30FB00FB0B8A2FFC0B8A2FFD0B67
:100F1E008A2F0000C72F881D952F962F982FF3012B
:100F2E00F30A88199B2F9C2FAD2F7303031DA02F3F
:100F3E00A12FAD2FF3017008013EFB007B08F000DE
:100F4E007008203E84008313000886000930700666
:100F5E00031DB22FB32F492F081677088700F4010F
:100F6E0085018601F1011530FD004B30FC00BE30CD
:100F7E00FB00FB0BC02FFC0BC02FFD0BC02F000086
:100F8E000A128A11002883133430FD000630FE0049
:100F9E009730FF00203084000A128A1188260A1228
:100FAE008A110A128A117F260A128A11F6000A1273
:100FBE008A1180260A128A11F7000A128A118126D6
:100FCE000A128A11F8000A128A1182260A128A114E
:100FDE00F9000A128A1183260A128A11FA00F00108
:100FEE00F101F201F301F401F50183010A128A11F4
:020FFE00AB2E18
:04400E00D4E0FFFFFC
:00000001FF
