:020000040000FA
:060000000A128A110C280F
:10000800FE00030EF5000A08F6000A128A1191286C
:100018000A128A110F28F001F101F201F301F4012B
:1000280083010A128A1118288316031387010815F9
:1000380088150812881286168613831203139F17D1
:100048001F131F08C33934389F00831603139F17E3
:100058000F168F160F17831203139F141F140812FD
:10006800881285018613831603131E08831203134F
:10007800870008161A30F800F830F700F70B422806
:10008800F80B422800008312031308121E08870089
:1000980088161A30F800F830F700F70B5128F80BDB
:1000A800512800008312031388121F185C285D284A
:1000B8005E281F147203031D622863287728F20143
:1000C800740A0319682869286E287408013EF70025
:1000D8007708F400740A031D722873287728FF3004
:1000E800F7007708F4007003031D7B287C28372865
:1000F800F001740803198128822887287408FF3EB4
:10010800F7007708F4007408031D8B288C2837281B
:10011800F40137280A128A110C2883120313881D48
:10012800962897289928F301F30A88199C289D286E
:10013800A5287303031DA128A228A528F301F2010D
:10014800F20A081DA828A928AB28F101F10A081904
:10015800AE28AF28B7287103031DB328B428B728E1
:10016800F101F001F00A76088A00750E8300FE0E90
:040178007E0E0900EE
:04400E00D4E0FFFFFC
:00000001FF
